:020000040800F2
:10000000F806002041190008950200089702000830
:100010009B0200089F020008A302000800000000E5
:10002000000000000000000000000000A70200081F
:10003000A902000800000000AB020008AD020008A1
:100040005B1900085B1900085B1900085B190008C0
:100050005B1900085B1900085B1900085B190008B0
:100060005B1900085B1900085B1900085B190008A0
:100070005B1900085B1900085B1900085B19000890
:100080005B1900085B1900085B1900085B19000880
:100090005B1900085B1900085B1900085B19000870
:1000A0005B190008F50900085B1900085B190008D6
:1000B0005B1900085B1900085B1900085B19000850
:1000C0005B1900085B1900085B1900085B19000840
:1000D0005B190008D91800085B1900085B190008B3
:1000E0005B1900085B1900085B1900085B19000820
:1000F0005B1900085B1900085B1900085B19000810
:100100005B1900085B1900085B1900085B190008FF
:100110005B1900085B1900085B1900085B190008EF
:100120005B1900085B1900085B1900085B190008DF
:1001300000F002F800F03AF80AA090E8000C8244BF
:100140008344AAF10107DA4501D100F02FF8AFF29C
:10015000090EBAE80F0013F0010F18BFFB1A43F0A5
:100160000103184780390000A0390000103A24BF6D
:1001700078C878C1FAD8520724BF30C830C144BF0C
:1001800004680C607047000000230024002500264E
:10019000103A28BF78C1FBD8520728BF30C148BFEA
:1001A0000B6070471FB51FBD10B510BD03F05DFC9F
:1001B0001146FFF7F7FF00F02BF803F07BFC03B4C8
:1001C000FFF7F2FF03BC03F07FFC000010B500F066
:1001D00066FA00F00BFB01F04CFB00F0F4FB00F0C2
:1001E000FEFC00F0C2FF01F08FF801F06EFA01F0A2
:1001F000A1FA10BD70B505460C4635B1207801282E
:1002000004D1A8470020207000E070BD00BFFCE7CB
:10021000FFF7DCFF28E015491548FFF7EBFF13490E
:10022000C91E1448FFF7E6FF1049891E1248FFF760
:10023000E1FF0E49491F1148FFF7DCFF0B49091F79
:100240000F48FFF7D7FF0949C91F0E48FFF7D2FF34
:100250000649891F0C48FFF7CDFF0C490C48FFF7F2
:10026000C9FF012009490870D5E7000023000020DC
:10027000BB0B000817110008D1120008AF050008D9
:10028000C507000861140008811500084800002017
:1002900009170008704700BFFEE700BFFEE700BF78
:1002A000FEE700BFFEE770477047704770470000E9
:1002B0000CB50020019000906C48006840F480303C
:1002C0006A49086000BF6948006800F40030009087
:1002D0000198401C0190009818B90198B0F5A06FE2
:1002E000F1D16248006800F4003010B101200090A4
:1002F00001E0002000900098012843D15C4800688C
:1003000040F010005A4908600846006820F00300D9
:1003100008600846006840F00200086053484068E2
:10032000524948600846406848600846406840F4C2
:10033000806048600846406820F47C1048600846A9
:10034000406840F4E81048600846006840F080705B
:10035000086000BF4548006800F000700028F9D030
:100360004248406820F00300404948600846406821
:1003700040F00200486000BF3C48406800F00C00BC
:100380000828F9D10CBD10B5FFF792FF10BD10B5CC
:100390003648006840F0010034490860084640686B
:1003A00034490840314948600846006832490840ED
:1003B0002E4908600846006820F48020086008463E
:1003C000406820F4FE0048604FF41F008860FFF78B
:1003D000DAFF4FF000602949086010BD10B5002118
:1003E00000200022214B5B6803F00C0121B104299D
:1003F00006D0082928D107E0214B224C236027E0B2
:100400001F4B204C236023E0184B5B6803F47010F3
:10041000164B5B6803F48032022303EB904022B951
:10042000194B4343174C23600DE0104B5B6803F4FA
:10043000003323B1144B4343124C236003E0104BB1
:100440004343104C236003E00D4B0E4C236000BF70
:1004500000BF064B5B68C3F303130C4CE15C094B14
:100460001B68CB40074C236010BD00000010024009
:10047000002002400000FFF8FFFFF6FE08ED00E05C
:1004800000127A000000002000093D000400002056
:1004900087480078C0F3C00086498979C1F3C0015C
:1004A000884203D101208449086002E0002082498B
:1004B00008607F480078C0F300107E498979C1F355
:1004C0000011884204D101207B49091D086003E026
:1004D00000207949091D0860704775480078C0F30D
:1004E000800074498979C1F38001884203D10120D9
:1004F0007249086002E0002070490860704710B53A
:1005000000F04DF9012803D100206D49086006E094
:1005100000F045F9022802D101206949086010BDA8
:1005200063480078C0F3400062498979C1F3400113
:10053000884204D063480078C0F30010B8B1624824
:100540008078012804D161480078401C5F49087018
:100550005E480078C8280EDB5848001F0068C0437A
:100560005B49C1F89C0100205849087003E0002055
:100570005249091F086070474D48007800F001009B
:100580004C49897901F00101884204D101204B498D
:10059000083908600AE04C488078012806D14748AD
:1005A00008380068C0434A49C1F89801704710B53F
:1005B000FFF7E2FFFFF7B4FFFFF7A1FFFFF78DFFA3
:1005C000FFF766FF10BD08B50121402001F062FD74
:1005D0006420ADF8000010208DF8030003208DF892
:1005E000020069463B4801F099FA6421394801F05C
:1005F00042FB08BD08B501211C2001F04BFD102075
:100600008DF8030003208DF802002020ADF80000D3
:100610006946314801F082FA20212F4801F02DFB74
:100620004FF4F070ADF8000069462C4801F076FAFE
:1006300020212A4801F01FFB4FF4E071274801F008
:100640001CFB4FF4C050ADF800006946244801F08F
:1006500065FA4FF4C051224801F00FFB08BD144861
:10066000007820F00100401C11490870084600780D
:1006700020F00200801C08700846007820F004007A
:10068000001D08700846007820F008000830087047
:100690000846007820F0100010300870704710B540
:1006A000FFF7DDFFFFF7A6FFFFF78DFF10BD00008E
:1006B000140000206A000020AC012242A0812142E7
:1006C000940121423C0000201C0000201500002065
:1006D000008021420018014000080140000C014048
:1006E0000010014010B504464248007820B10128AE
:1006F0000ED002284ED118E000203F49087010218A
:100700003E4801F09EFA10B901203A49087042E0D3
:1007100010213A4801F095FA18B9022035490870BD
:1007200002E000203349087035E01021334801F021
:1007300088FA01280BD13048007840B901202E49B1
:10074000087000202B4908702D49088021E01021F5
:100750002A4801F076FA78B929480088401C2849CF
:10076000088008460088A04213DB02202249087056
:100770000020234908800CE01021204801F061FA94
:10078000012806D11C480078022802D1002019490E
:10079000087000E000BF00BF1748007810BD10B51A
:1007A000C820FFF79FFF012802D11649087006E014
:1007B000C820FFF797FF022801D11249087011489D
:1007C000007810BD10B5FFF7EAFF10BD08B5012194
:1007D000402001F05FFC1020ADF8000048208DF8AB
:1007E00003006946054801F099F908BD10B5FFF707
:1007F000EDFF10BD1600002017000020001801407A
:10080000180000201A00002030B589B005460C46BB
:100810000121084601F04BFC0121042001F03AFCC3
:100820000F20ADF8200018208DF8230003208DF84C
:10083000220008A9954801F071F9ADF81850ADF8FB
:1008400014400020ADF81A00ADF8160005A94FF0CD
:10085000804001F057FD7020ADF804000120ADF894
:1008600006000220ADF80C0001A9400701F087FD49
:1008700001A94FF0804001F0C4FD01A94FF0804074
:1008800001F00CFE01A94FF0804001F052FE08215A
:10089000C80602F0C3F90821C80602F0C8F9082109
:1008A000C80602F0D1F90821C80602F0D6F90121E4
:1008B000880702F083F809B030BD30B589B005462D
:1008C0000C460121022001F0F2FB0121042001F07D
:1008D000E1FBC020ADF8200018208DF82300032094
:1008E0008DF8220008A9694801F018F9ADF81850F0
:1008F000ADF814400020ADF81A00ADF8160005A9B7
:10090000634801F0FFFC7020ADF804000120ADF851
:1009100006000220ADF80C0001A95D4801F02FFD92
:1009200001A95B4801F06DFD0821594802F076F9F4
:100930000821574802F07BF90121554802F03EF8A2
:1009400009B030BD7FB505460C460121C80201F053
:10095000A1FBADF80850ADF804400020ADF80A0046
:10096000ADF806008DF80C0001A94A4801F0CAFC58
:100970000121484802F0E8FA01221146454802F0F8
:1009800038F84FF4A06000F0FBFF19208DF800004C
:1009900000208DF8010003208DF8020001208DF861
:1009A0000300684600F0F1FF01213A4802F006F822
:1009B0007FBD3949002003E000220A54421CD0B216
:1009C0000828F9D3704710B5FFF7F3FF41F61F4130
:1009D0006320FFF7B7FFC72141F61F40FFF76DFF08
:1009E000002140F28330FFF70FFF4FF4A06000F0CA
:1009F000C7FF10BD10B50121264802F0A8FA002853
:100A000043D00121234802F0B3FA24480078401C67
:100A10002249087008460078012806DB01201E499B
:100A2000C871C87000201D4908701D480078401C1E
:100A30001B49087008460078022808DB0120164987
:100A40000871487188718870002015490870154830
:100A50000078401C13490870084600780A2805DB16
:100A600001200D49087000200E4908700E480088CA
:100A7000401C0D49088008460088642805DB0120D9
:100A80000549487000200849088010BD0008014051
:100A900000040040002C01401C0000202400002025
:100AA00025000020260000202800002010B54E4818
:100AB00000784E490870012048704D480068007861
:100AC00000F0F000887048484078C87049480078C5
:100AD0000121B1EB600F09D10421444800F0D3FE9D
:100AE00045480068C0434549C1F8980110BD3E48DB
:100AF000007843490978884207D13B48407840490B
:100B0000497A884201D1012070470020FCE73C4827
:100B10004078012800D170470020FCE770B5394DBE
:100B200039480078012847D1400402F039FF0128F4
:100B300042D1FFF7ECFF012832D1FFF7D8FF01289F
:100B40002ED1324800780A282AD1002404E02C480B
:100B5000005D2855601CC4B20A2CF8DB002407E0B5
:100B6000285D2B49095D884200D003E0601CC4B2B7
:100B70000A2CF5DB00BF2648007822490978884214
:100B80000ED12348407A1F49497A884208D10A2C5D
:100B900006D11948001F0068C0431849C1F89401E4
:100BA0000020194908704FF4003002F00DFF114881
:100BB000007802200F49087070BD10B5FFF7AEFF36
:100BC000FFF774FF00F07AFE10BD0E49002003E02D
:100BD00000220A54421CD0B20A28F9D3704710B53B
:100BE000FFF7F3FF10BD0000D73A00082A000020ED
:100BF000400000202E0000209801234200002342E4
:100C0000600000206A000020490000204A00002007
:100C1000D93A000810B500214FF0804002F06CF97D
:100C20000020FE490860FE49C1F8A40110BD10B5BE
:100C300002460020012909D102F0010302F002045A
:100C4000234302F0040443EA040001E002F0080038
:100C500010BD10B5F349096808780021FFF7E7FFD8
:100C6000044604F0080038B90020EC49086001206F
:100C7000EB49C1F8A4010AE000214FF0804002F0E6
:100C80003BF90020E5490860E549C1F8A40110BD21
:100C900010B5E449096808780021FFF7C8FF044649
:100CA00004F0080038B90120DC4908600020DC4964
:100CB000C1F8A4010AE000214FF0804002F01CF9C5
:100CC0000020D6490860D649C1F8A40110BD70B50E
:100CD0000546012407E045FA04F0012801D1254624
:100CE00003E0601CC4B2082CF5DB00BF962205FBB4
:100CF00002F0401E81B24FF0804002F0FDF870BD5E
:100D00000146002001F03001C74A12780A408A42A9
:100D100001D0022000E00020C34A1170704770B576
:100D200006460C4615462046FFF7EAFFBF49087005
:100D3000FFF735FD022841D104F00400042807D054
:100D400004F04000402803D0B8480078022808D1B9
:100D5000FFF760FFB548007840F00100B349087024
:100D60002EE0B3480078401CC0B2B1490870B042D0
:100D700005DAAE48007800F00300012820D105F024
:100D8000010018B105F0FE00FFF7A1FF04F02000FC
:100D9000202807D1FFF77CFF0020A5490870A34950
:100DA00008700DE004F01000102809D1FFF751FF82
:100DB00000209F4908709D49087001E0FFF72AFF55
:100DC00070BD10B500214FF0804002F08FF8002177
:100DD0004FF0804002F08CF800214FF0804002F08C
:100DE00089F80020934908609349C1F8B4019149FA
:100DF00008310860091D0860884908390860884979
:100E0000C1F89C0110BD10B5864909680878012118
:100E1000FFF70DFF044604F0010038B900208549B2
:100E2000086001208449C1F8B4010AE000214FF0B4
:100E3000804002F05BF800207E4908607E49C1F8DE
:100E4000B40104F0020040B900207A49083108607A
:100E500001207949C1F8BC010BE000214FF080402E
:100E600002F046F800207349083108607249C1F861
:100E7000BC0104F0040040B900206849083908604A
:100E800001206749C1F89C010BE000214FF0804030
:100E900002F030F800206149083908606049C1F863
:100EA0009C0110BD10B55F49096808780121FFF762
:100EB000BEFE044604F0010038B901205D49086017
:100EC00000205D49C1F8B4010AE000214FF08040E4
:100ED00002F00CF80020574908605749C1F8B401E6
:100EE00004F0020040B90120524908310860002096
:100EF0005149C1F8BC010BE000214FF0804001F0E6
:100F0000F7FF00204B49083108604B49C1F8BC018C
:100F100004F0040040B9012040490839086000206D
:100F20003F49C1F89C010BE000214FF0804001F0E7
:100F3000E1FF00203949083908603949C1F89C01AE
:100F400010BD70B50446012507E044FA05F00128FC
:100F500001D12C4603E0681CC5B2082DF5DB00BFAB
:100F6000962204FB02F0401E81B24FF0804001F057
:100F7000BDFF962204FB02F0401E81B24FF080407C
:100F800001F0B6FF962204FB02F0401E81B24FF042
:100F9000804001F0AFFF70BD70B506460C461546A7
:100FA0002046FFF7ADFE25490870FFF7F8FB022841
:100FB00056D104F00400042807D004F04000402873
:100FC00003D01E480078022808D1FFF7FAFE1B481C
:100FD000007840F001001949087043E01848008883
:100FE000401C80B216490880B04205DA13480078E8
:100FF00000F00300012835D105F0010018B105F01B
:10100000FE00FFF79EFF04F0200020281CD1FFF710
:1010100049FF00200A490880084913E0A001224244
:101020000000224240000020300000203600002056
:1010300035000020B0812142008021423400002090
:101040003200002008700DE004F01000102809D1D3
:10105000FFF7D9FE0020494908804949087001E09E
:10106000FFF7AFFE70BD0246002001210AE042FA00
:1010700001F3012B04D18B40DBB243F0010003E00C
:101080004B1CD9B20829F2DB00BF70470146002093
:1010900001F0040201F040031A4301F010031A4367
:1010A00001F0200342EA03007047002035498978A7
:1010B000344AD27841EA020070472DE9F041FFF747
:1010C000F4FF04462F498878FFF7E0FF06462D49D4
:1010D0000879FFF7C8FF07462A49C878FFF7D6FF07
:1010E000804628494879FFF7BEFF054604F0010015
:1010F00028B13A4631464FF4FA70FFF74DFF04F03D
:101100000200022805D12A4641464FF4FA70FFF743
:1011100006FEBDE8F08110B5FFF7CFFF10BD08B5A2
:101120000121182000F0B6FF10208DF803000320E5
:101130008DF802004FF47040ADF800006946124887
:1011400000F0ECFC4FF470410F4800F096FD4FF4B6
:101150007070ADF8000069460C4800F0DFFC4FF4F9
:1011600070710A4800F089FD08BD10B5FFF7D7FF80
:10117000FFF727FEFFF74EFD10BD000032000020F4
:10118000340000206A000020000C014000100140E3
:101190000146082921D007DC79B1012911D00229A3
:1011A00013D004292DD114E010291AD020291CD0E5
:1011B00040291ED0802924D11FE00020544A1070FD
:1011C00020E00120524A10701CE00220504A1070AA
:1011D00018E003204E4A107014E004204C4A1070AE
:1011E00010E005204A4A10700CE00620484A1070B2
:1011F00008E00720464A107004E00820444A1070B6
:1012000000E000BF00BF4248007870474148807945
:10121000012810D140480078401CC0B23E490870F7
:101220001E2805D301203D49087000203A49087066
:1012300000203849887139480078704710B5044655
:10124000FFF7E4FF01281DD1042C0DDCC4EB0410D2
:1012500000EB40004FF4077202EB4000401E81B2E9
:101260002F4801F045FE0DE0201FC0EB001000EB01
:1012700040004FF40772A2EB4000401E81B22848A4
:1012800001F036FE10BD10B50446FFF7BFFF012880
:101290001DD1042C0DDCC4EB041000EB40004FF416
:1012A000077202EB4000401E81B21D4801F01EFE95
:1012B0000DE0201FC0EB001000EB40004FF4077260
:1012C000A2EB4000401E81B2154801F00FFE10BD98
:1012D00010B51449C879FFF75BFF0446FFF7D3FF49
:1012E0001049087AFFF754FF0446FFF7A7FF10BD27
:1012F00010B540F21B210A4801F0F8FD40F21B2115
:10130000074801F0F5FD10BD10B5FFF7F1FF10BD66
:101310003A0000201C000020390000203800002086
:10132000000400406A000020ED48008840F6B21139
:10133000884213DDEB480078401CEA4908700846F3
:1013400000780A2813DBE848007820F00100401CF0
:10135000E54908700020E349087008E00020E149F1
:101360000870E148007820F00100DF490870DC488F
:10137000408840F6B211884213DDDC480078401CFA
:10138000DA490870084600780A2813DBD648007846
:1013900020F00200801CD44908700020D349087056
:1013A00008E00020D1490870CF48007820F0020002
:1013B000CD490870CA48808840F6B211884213DDD2
:1013C000CB480078401CCA490870084600780A28B3
:1013D00013DBC548007820F00400001DC2490870E6
:1013E0000020C349087008E00020C1490870BE48C9
:1013F000007820F00400BC490870B948C08840F665
:10140000B211884213DDBB480078401CB94908700E
:10141000084600780A2813DBB348007820F008005B
:101420000830B14908700020B249087008E0002077
:10143000B0490870AC48007820F00800AA4908704C
:10144000704710B50121AC4802F02DF800BF022012
:1014500002F0A6FA0028FAD0022002F0B5FA10BD78
:1014600010B5FFF7EEFFFFF75FFF10BD9C48008946
:1014700040F6C94188420FDBA0480068007800F0C0
:101480000F009E49096808709748007820F0800096
:1014900080309549087070479348007820F08000AC
:1014A000914908708E48008940F6A231884215DBC8
:1014B0008B48008940F6C94188420FDA8F4800689E
:1014C000007800F00F008D490968087086480078A0
:1014D00020F04000403084490870DCE78248007802
:1014E00020F04000804908707D48008940F2646126
:1014F000884215DB7A48008940F6A23188420FDA2B
:101500007E480068007800F00F007C490968087088
:101510007548007820F02000203073490870BAE741
:101520007148007820F020006F4908706C480089ED
:1015300040F2D631884205DB6948008940F2646197
:10154000884205DB6648008940F2D63188420FDACE
:101550006A480068007800F00F0068490968087060
:101560006148007820F0100010305F49087092E761
:101570005D48007820F010005B49087000BF8AE7E2
:1015800010B5FFF75EFFFFF771FF10BD00B58BB020
:101590000121084600F071FD594802F019F956483A
:1015A0004C3000904E48019000200290052003909E
:1015B0000020049080200590400006908000079055
:1015C000202008900002099000200A9069464C48AB
:1015D00002F0A0F901214A4802F0C7F90BB000BDA2
:1015E00000B585B00121480200F054FD4FF40040E1
:1015F00000F0B4FC404801F0C3FE00200090012040
:101600008DF8040000208DF805004FF46020029052
:101610000020039005208DF810006946364801F03F
:10162000D6FE072301220A21334801F068FF072371
:1016300002220B21304801F062FF072303220C2114
:101640002D4801F05CFF072304220D212A4801F0F8
:1016500056FF072305220E21274801F050FF0121E4
:10166000254801F0EBFE0121234801F0DCFE224871
:1016700001F0FBFE00BF204801F0FCFE0028FAD17B
:101680001D4801F001FF00BF1B4801F002FF0028C8
:10169000FAD105B000BD08B50121102000F0FAFC18
:1016A00000208DF803001F20ADF8000069461548A2
:1016B00000F034FA08BD0C49002003E000220A546F
:1016C000421CD0B20028F9D0704710B5FFF7F3FFE5
:1016D000FFF7E1FFFFF784FFFFF758FF10BD0000A1
:1016E0008C000020440000203C0000204500002029
:1016F0004600002047000020002401404000002058
:10170000080002400010014010B502F094F910BD2D
:1017100070B505460C4645F2555002F083F928464F
:1017200002F083F9204602F083F902F084F902F016
:1017300087F970BD10B541F66A010420FFF7E8FF94
:1017400010BD000000B58BB00121084600F095FCEB
:10175000734802F03DF873480090734801900020F0
:1017600002900A2003900020049080200590002021
:101770000690079008904FF44050099000200A907E
:101780006946674802F0C6F80121654802F0EDF8A5
:101790000BB000BD08B50121082000F07BFC102033
:1017A0008DF8030003208DF8020040F60240ADF8EA
:1017B000000069465D4800F0B1F940F602415B481F
:1017C00000F05BFA08BD10B586B00446012144F272
:1017D000040000F05FFC4FF40070ADF8140003202B
:1017E0008DF8160018208DF8170005A9504800F054
:1017F00095F94FF48060ADF8140004208DF81700BF
:1018000005A94B4800F08AF925208DF80000012039
:101810008DF8010003208DF8020001208DF80300EF
:10182000684600F0B2F801940020ADF80800ADF869
:101830000A00ADF80C00ADF810000C20ADF80E0059
:1018400001A93848001F01F0DAFB012240F22441CF
:101850003448001F01F06BFC012240213148001F79
:1018600001F08AFC01212F48001F01F054FC06B052
:1018700010BD10B54FF41650FFF7A5FFFFF78AFF14
:10188000FFF760FF10BD70B504460D460BE000BFCA
:1018900080212448001F01F019FD0028F8D014F819
:1018A000010B204908802800A5F10101CDB2EED13D
:1018B0002048007801201F49087070BD10B51D48F0
:1018C0000078012807D11C480078012803D10121A4
:1018D000134802F04AF810BD10B540F224411148F7
:1018E000001F01F009FD012819D10E48001F0088D2
:1018F000124908700B48008808700021084802F05F
:1019000034F8074802F048F8C0F10A000B490870A3
:101910000A2003495839C86501200749087010BDDD
:10192000580002400438014060000020000C0140D3
:10193000000801402E000020490000204A0000203D
:101940000948804709480047FEE7FEE7FEE7FEE753
:10195000FEE7FEE7FEE7FEE7FEE7FEE7044805498F
:10196000054A064B704700008F030008310100084C
:10197000F8000020F8060020F8020020F8020020FD
:1019800031490143314A1160704770B5002100238D
:101990000F22C47804B32D4C246804F4E064C4F529
:1019A000E064210AC1F10403CA40447804FA03F157
:1019B0008478144021430901254C0678A155047808
:1019C00004F01F050124AC4005786D11AD0005F150
:1019D000E025C5F8004109E0047804F01F05012462
:1019E000AC401C4D0678761145F8264070BD1A4A69
:1019F0000A400243154B1B1F1A60704739B1134A46
:101A0000121D12680243114B1B1D1A6006E00F4A9B
:101A1000121D126882430D4B1B1D1A60704704286B
:101A200008D14FF0E021096941F004014FF0E022B4
:101A3000116107E04FF0E021096921F004014FF046
:101A4000E0221161704700000000FA050CED00E093
:101A500000E400E080E100E080FFFF1F10B50446D5
:101A6000CC48844208D10121042000F02DFB002144
:101A7000042000F029FB46E0C748844208D1012138
:101A8000082000F021FB0021082000F01DFB3AE0B7
:101A9000C248844208D10121102000F015FB00212A
:101AA000102000F011FB2EE0BD48844208D1012136
:101AB000202000F009FB0021202000F005FB22E09F
:101AC000B848844208D10121402000F0FDFA0021ED
:101AD000402000F0F9FA16E0B348844208D1012111
:101AE000802000F0F1FA0021802000F0EDFA0AE0F9
:101AF000AE48844207D10121801500F0E5FA0021AB
:101B0000A01500F0E1FA10BD10B50121084600F063
:101B1000DBFA0021012000F0D7FA10BD2DE9F041D9
:101B2000024600250026002000230024002791F80B
:101B300003C00CF00F0591F803C00CF0100CBCF1C1
:101B4000000F03D091F802C04CEA050591F800C0DF
:101B5000BCF1000F31D0146800202BE04FF0010CD5
:101B60000CFA00F3B1F800C00CEA03069E4220D143
:101B700083004FF00F0C0CFA03F7BC4305FA03FC8B
:101B80004CEA040491F803C0BCF1280F06D14FF0D1
:101B9000010C0CFA00FCC2F814C00AE091F803C072
:101BA000BCF1480F05D14FF0010C0CFA00FCC2F853
:101BB00010C0401C0828D1D31460B1F800C0BCF19B
:101BC000FF0F34DD546800202EE000F1080C4FF0C8
:101BD000010808FA0CF3B1F800C00CEA03069E42B3
:101BE00021D183004FF00F0C0CFA03F7BC4305FA28
:101BF00003FC4CEA040491F803C0BCF1280F05D1A2
:101C000000F1080C08FA0CF8C2F8148091F803C02F
:101C1000BCF1480F07D100F1080C4FF0010808FA99
:101C20000CF8C2F81080401C0828CED35460BDE8E0
:101C3000F0814FF6FF710180022181700421C17093
:101C400070470246002093680B400BB1012000E072
:101C5000002070470146886880B270470246002025
:101C6000D3680B400BB1012000E000207047014613
:101C7000C86880B2704701617047416170470AB11E
:101C8000016100E041617047C16070474FF48032EC
:101C90000A4382618161826182698269704702467A
:101CA0000020434B18684FF68073184040EA02103A
:101CB00008433F4B186070473E49C8617047F0B514
:101CC0000A46002300240021002500F00046B6F15A
:101CD000004F02D1364EF16901E0354E7168C0F314
:101CE000034583B200F44016B6F5401F08D121F039
:101CF00070612F4E766826F070662D4F7E6012E080
:101D000000F48016B6F5801F06D1032606FA05F406
:101D1000A14341F0706106E0460D360103FA06F674
:101D2000B14341F0706122B1460D360103FA06F667
:101D3000314300F00046B6F1004F02D11C4EF16174
:101D400001E01B4E7160F0BD30B500228B071C0F07
:101D50000F2303FA04F2164B08338C1053F8243087
:101D60009343134C08348D1044F8253023468C10CF
:101D700053F824308C07240F00FA04F423430C4C4E
:101D800008348D1044F8253030BD0A49DC31086034
:101D90007047000000080140000C014000100140A5
:101DA0000014014000180140001C014000200140C7
:101DB0000000014000002042DF48006840F00100C0
:101DC000DD49086008464068DC490840DA49486057
:101DD00008460068DA490840D749086008460068A4
:101DE00020F4802008600846406820F4FE00486027
:101DF0004FF41F0088607047CF49096821F4803193
:101E0000CD4A11601146096821F480211160B0F5B6
:101E1000803F03D0B0F5802F0ED106E0C649096897
:101E200041F48031C44A116007E0C349096841F4B4
:101E3000A021C14A116000E000BF00BF704710B58B
:101E400001460022002300204A11012A02D1BA4C87
:101E5000236806E0022A02D1B74C236A01E0B64C9F
:101E6000636A01F01F02012494401C400CB1012060
:101E700000E0002010BD38B50020009000240025AF
:101E800000BF3120FFF7DBFF05460098401C0090A3
:101E90000098B0F5A06F01D0002DF2D03120FFF7EF
:101EA000CEFF08B1012400E00024204638BD0146E1
:101EB0000020A14A106820F0F80040EAC10010603C
:101EC0007047A04908607047024600209A4B586846
:101ED00020F47C1042EA01031843974B5860704786
:101EE00098490866704701460020934A506820F0E0
:101EF00003000843506070478F48406800F00C00B2
:101F00007047014600208C4A506820F0F0000843DA
:101F10005060704701460020874A506820F4E06016
:101F200008435060704701460020834A506820F4FF
:101F3000605040EAC1005060704729B17E4A527A31
:101F400002437D4B5A7204E07B4A527A82437A4BB9
:101F50005A7270477B49D8310860704701460020AB
:101F6000754A506820F44040084350607047002193
:101F7000714A20321170704A82F82010012802D074
:101F800004280AD104E001216B4A2032117005E0D7
:101F90000521694A2032117000E000BF00BF704780
:101FA0006949086070476449096A0143624A1162DD
:101FB0007047654944390860704730B500210022F8
:101FC000002400235C4D6D6805F00C0121B104294B
:101FD00005D0082923D105E05C4D056022E05B4D6A
:101FE00005601FE0544D6D6805F47012524D6D6828
:101FF00005F48034022505EB92421CB9544D55433B
:1020000005600BE04C4D6D6805F400351DB1504D79
:102010005543056002E04D4D5543056002E04B4DD0
:10202000056000BF00BF444D6D6805F0F00109096F
:10203000484D6B5C0568DD4045603F4D6D6805F4BB
:10204000E061090A434D6B5C4568DD4085603A4DAF
:102050006D6805F46051C90A3E4D6B5C4568DD4012
:10206000C560354D6D6805F44041890B3A4D6B5C98
:10207000C568B5FBF3F5056130BD29B12E4A52693B
:1020800002432D4B5A6104E02B4A526982432A4B8A
:102090005A61704729B1284A92690243264B9A61D6
:1020A00004E0254A92698243234B9A61704729B123
:1020B000214AD2690243204BDA6104E01E4AD26908
:1020C00082431D4BDA61704729B11B4AD268024333
:1020D000194BDA6004E0184AD2688243164BDA6082
:1020E000704729B1144A12690243134B1A6104E084
:1020F000114A12698243104B1A61704712494039E4
:10210000086070470F49C86470470B49C871704731
:102110000948406A40F080700749486270470146AC
:102120000020054A92680A400AB1012000E0002020
:102130007047014988727047001002400000FFF8A4
:10214000FFFFF6FE000042428004424200127A0085
:1021500000093D004B0000205B00002010B5044644
:10216000FE48844208D10121C014FFF7ADFF0021D1
:10217000E014FFF7A9FFC4E0B4F1804F08D10121BA
:102180000846FFF7AEFF00210120FFF7AAFFB8E0E5
:10219000F348844208D101210220FFF7A2FF002169
:1021A0000220FFF79EFFACE0EE48844208D10121F7
:1021B0000420FFF796FF00210420FFF792FFA0E024
:1021C000E948844208D101210820FFF78AFF002155
:1021D0000820FFF786FF94E0E448844208D10121FB
:1021E0001020FFF77EFF00211020FFF77AFF88E024
:1021F000DF48844208D101212020FFF772FF00212F
:102200002020FFF76EFF7CE0DA48844208D10121EC
:102210004014FFF759FF00216014FFF755FF70E0ED
:10222000D548844209D10121C804FFF74DFF0021A0
:102230004FF40020FFF748FF63E0D048844209D103
:1022400001210805FFF740FF00214FF48010FFF740
:102250003BFF56E0CA48844209D101214805FFF7F7
:1022600033FF00214FF40010FFF72EFF49E0C5486F
:10227000844208D101214020FFF733FF0021402094
:10228000FFF72FFF3DE0C048844208D101218020A4
:10229000FFF727FF00218020FFF723FF31E0BB4835
:1022A000844208D101218015FFF71BFF0021A015F2
:1022B000FFF717FF25E0B648844209D10121080441
:1022C000FFF702FF00214FF48030FFF7FDFE18E01A
:1022D000B048844209D101214804FFF7F5FE0021EE
:1022E0004FF40030FFF7F0FE0BE0AB48844208D11A
:1022F00001218804FFF7E8FE00214FF48020FFF75A
:10230000E3FE10BD00220288944B98420ED0994BF8
:1023100098420BD0B0F1804F08D0914B984205D035
:10232000904B984202D0904B984204D14FF68F7355
:102330001A404B881A438D4B984207D08C4B9842D9
:1023400004D04FF6FF431A40CB881A4302808B8893
:1023500083850B880385814B98420BD0854B98422F
:1023600008D08B4B984205D08A4B984202D08A4BBA
:10237000984201D10B7A038601238382704770B59E
:10238000002400220023058C4FF6FE76354005849C
:10239000028C8388048B4FF68F752C40B51E2C4021
:1023A0000D882C43751E2A400D892A434D882A43E7
:1023B0006A4DA8420BD06F4DA84208D0744DA84278
:1023C00005D0744DA84202D0734DA84213D14FF6E8
:1023D000F7752A404D892A434FF6FB752A408D88B0
:1023E0002A434FF6FF652B404FF6FF552B408D8952
:1023F0002B43CD892B4383800483CD88858602843B
:1024000070BD70B5002400220023058C4FF6EF76D6
:1024100035400584028C8388048B48F6FF752C4078
:102420004FF6FF452C400D884FF6FF7606EA05254E
:102430002C434FF6DF752A400D8906EA05152A431D
:102440004D8806EA05152A43444DA84202D0494D5D
:10245000A8421DD14FF67F752A404D894FF6FF7671
:1024600006EA05152A434FF6BF752A408D8806EA0D
:1024700005152A434FF6FF352B404FF2FF752B40D1
:102480008D8906EA85052B43CD8906EA85052B4310
:1024900083800483CD880587028470BD70B50024D5
:1024A00000220023058C4FF6FF6635400584028C20
:1024B0008388848B4FF68F752C404FF6FC752C402B
:1024C0000D882C434FF6FF552A400D894FF6FF76B5
:1024D00006EA05252A434D8806EA05252A431F4DAD
:1024E000A84202D0234DA8421DD14FF2FF752A40C9
:1024F0004D894FF6FF7606EA05252A434FF6FF354C
:102500002A408D8806EA05252A434EF6FF752B40A2
:102510004DF6FF752B408D8906EA05152B43CD89B5
:1025200006EA05152B4383808483CD888587028442
:1025300070BD70B5002200230024058C4EF6FF7696
:1025400035400584038C8488828B48F6FF752A40C9
:102550004FF6FF452A400D8820E00000002C014086
:102560000004004000080040000C00400010004043
:102570000014004000340140004C01400050014074
:102580000054014000180040001C004000200040A2
:102590000040014000440140004801404FF6FF76F2
:1025A00006EA05252A434DF6FF752B400D8906EAFC
:1025B00005352B434D8806EA05352B43FA4DA842D5
:1025C00002D0FA4DA84208D14BF6FF752C408D89F8
:1025D0004FF6FF7606EA85152C4384808283CD88EA
:1025E000A0F84050038470BD828B4FF2FF331A4035
:1025F0008283828B4FF6FF7303EA01231A4382839F
:102600007047F0B50C461546002200210026078CC5
:102610004EF6FF7C07EA0C070784828B018C4FF68D
:10262000FF7707EA043640F6FF473A404FF6FF7758
:1026300007EA05273A434FF6FF7707EA03373A439D
:10264000D94FB8420ED0D94FB8420BD0B0F1804F1D
:1026500008D0D74FB84205D0D64FB84202D0D64F97
:10266000B84206D14DF6FF77394046F480573943DA
:1026700005E047F6FF57394044F4805739438283D9
:102680000184F0BD828B4FF6F3731A408283828BF4
:102690000A4382837047F0B50C461546002200219C
:1026A0000026078C4FF6FF6C07EA0C070784828B25
:1026B000018C4FF6FF7707EA04264FF60C773A4075
:1026C0004FF6FF7707EA03172F433A43B64FB84256
:1026D0000ED0B64FB8420BD0B0F1804F08D0B44FF7
:1026E000B84205D0B34FB84202D0B34FB84206D17A
:1026F0004FF6FF57394046F48077394305E04FF2F3
:10270000FF57394044F48077394382830184F0BD18
:10271000028B4FF2FF331A400283028B4FF6FF7396
:1027200003EA01231A4302837047F0B50C461546AD
:10273000002200210026078C4FF6EF7C07EA0C07E9
:102740000784028B018C4FF6FF7707EA041640F6E8
:10275000FF473A404FF6FF7707EA03373A434FF611
:10276000FF7707EA05273A438F4FB8420ED08F4FC5
:10277000B8420BD0B0F1804F08D08D4FB84205D091
:102780008C4FB84202D08C4FB84206D14FF6DF775B
:10279000394046F01007394305E04FF65F7739407E
:1027A00044F01007394302830184F0BD028B4FF6D9
:1027B000F3731A400283028B0A4302837047F0B519
:1027C0000C46154600220021068C4FF6FE773E404F
:1027D0000684028B018C4FF60C7632407E1C06EA92
:1027E00003162E433243704EB0420ED06F4EB042AD
:1027F0000BD0B0F1804F08D06D4EB04205D06D4E79
:10280000B04202D06C4EB04206D14FF6FD76314058
:1028100044F00106314305E04FF6F576314044F0CF
:102820000106314302830184F0BD70B505460C46B4
:102830005D4885420ED05D4885420BD0B5F1804F92
:1028400008D05B48854205D05A48854202D05A4894
:10285000854200D100E000BF208850B92389A288BA
:1028600061882846FFF7ABFFE1882846FFF79EFF07
:1028700025E0208804280AD12389A2886188284677
:10288000FFF753FFE1882846FFF742FF17E0208853
:1028900008280AD12389A28861882846FFF7FBFE11
:1028A000E1882846FFF7EEFE09E02389A2886188C7
:1028B0002846FFF7A6FEE1882846FFF795FE70BD83
:1028C0002DE9F04105460C4600260127608808B92D
:1028D000022600E00026A088012801D1022700E09E
:1028E00001272088A0B92389A28861882846FFF79C
:1028F00066FFE1882846FFF759FF23893A463146AB
:102900002846FFF712FFE1882846FFF701FF13E092
:102910002389A28861882846FFF707FFE1882846B7
:10292000FFF7F6FE23893A4631462846FFF747FF70
:10293000E1882846FFF73AFFBDE8F0810A884B8816
:102940001A438B881A43CB881A430B891A434B8945
:102950001A438B891A43A0F8442070474FF6FF7141
:10296000818000210180C180418001727047002177
:10297000018041808180C180018141818181C1814B
:102980007047002101804180012181800021C180A8
:10299000018170470021018041808180C1800181D7
:1029A0004181818170470000002C014000340140CA
:1029B0000004004000080040000C004021B10288E3
:1029C00042F00102028004E002884FF6FE731A40D2
:1029D0000280704731B1B0F8442042F40042A0F8C0
:1029E000442005E0B0F84420C2F30E02A0F84420D1
:1029F00070471AB183890B43838102E083898B433B
:102A0000838170478182704741EA0203A0F8483011
:102A100070471AB183890B43838102E083898B431A
:102A20008381704701894FF6F87211400181704728
:102A30000A46002101894FF68F7319401143018125
:102A4000704730B504460D4629462046FFF7F0FF93
:102A5000208940F00700208130BD2DE9F041044677
:102A60000D4616461F46602D06D13B4601223146D3
:102A70002046FFF75AFE05E03B460122314620463C
:102A8000FFF79DFE29462046FFF7D2FF208940F040
:102A900007002081BDE8F08130B50C460021018996
:102AA000C9B24FF6FF7505EA0325154325432943AF
:102AB000018130BD2DE9F04105460E461746984686
:102AC000002443463A4631462846FFF7E5FF2C8965
:102AD0004FF6F870044044F007044FF68F7004403E
:102AE00044F070042C81BDE8F081F0B504460D4639
:102AF00016461F463B46324629462046FFF7CCFF86
:102B0000208940F480402081F0BD01858282704799
:102B10000A46002101884FF68F7319401143018046
:102B20007047F0B50C4615461E46002100220023D2
:102B30000189028B038C4FF6F877394021434FF619
:102B4000FC473A4040F201173A434FF6DD773B40ED
:102B50004FF6FF7707EA06172F433B4301810283B5
:102B60000384F0BD0A460021018B4FF68F73194094
:102B70001143018370470A460021018B48F6FF7319
:102B800019404FF6FF7303EA02231943018370478C
:102B90000A460021818B4FF68F73194011438183C0
:102BA00070470A460021818B48F6FF7319404FF6A3
:102BB000FF7303EA022319438183704721B102881E
:102BC00042F08002028004E002884FF67F731A40D0
:102BD0000280704721B1828842F00402828004E0C2
:102BE00082884FF6FB731A408280704721B1828839
:102BF00042F00802828004E082884FF6F7731A40A0
:102C00008280704721B1828842F00102828004E014
:102C100082884FF6FE731A40828070470A46002170
:102C2000018B4FF6F77319401143018370470A4631
:102C30000021018B4FF2FF7319404FF6FF7303EA37
:102C400002231943018370470A460021818B4FF606
:102C5000F77319401143818370470A460021818B25
:102C60004FF2FF7319404FF6FF7303EA0223194333
:102C7000818370470A460021018B4FF6FB73194090
:102C80001143018370470A460021018B4FF6FF3341
:102C900019404FF6FF7303EA02231943018370477B
:102CA0000A460021818B4FF6FB7319401143818343
:102CB00070470A460021818B4FF6FF3319404FF6CB
:102CC000FF7303EA02231943818370470A460021F8
:102CD000018B4FF67F7319401143018370470A46F9
:102CE0000021018BC1F30E014FF6FF7303EA0223AB
:102CF0001943018370470A460021818B4FF67F7389
:102D000019401143818370470A460021818BC1F32A
:102D10000E014FF6FF7303EA0223194381837047C4
:102D20000A460021018C4FF6FD73194011430184BE
:102D300070470A460021018C4FF6F7731940114382
:102D4000018470470A460021018C4FF6DF73194059
:102D50004FF6FF7303EA02131943018470470A46D2
:102D60000021018C4FF67F7319404FF6FF7303EA81
:102D700002131943018470470A460021018C4FF663
:102D8000FF5319404FF6FF7303EA022319430184EE
:102D900070470A460021018C4FF2FF7319404FF62D
:102DA000FF7303EA02231943018470470A46002196
:102DB000018C4DF6FF7319404FF6FF7303EA02339F
:102DC00019430184704730B5002301248C40A3B21D
:102DD000048C9C430484048C02FA01F5ADB22C43AC
:102DE000048430BD30B5002304248C40A3B2048C8D
:102DF0009C430484048C02FA01F5ADB22C43048494
:102E000030BD70B503460020002418461830012557
:102E10008D40ACB21D8CA5431D8409B1082909D190
:102E200000EB6100056825F0700505600568154335
:102E300005600EE00D1FC5F34E052844056825F416
:102E4000E045056005684FF6FF7606EA0226354341
:102E5000056070BD21B1028842F00202028004E0E8
:102E600002884FF6FD731A400280704721B1028834
:102E700042F00402028004E002884FF6FB731A401D
:102E80000280704721B1828842F08002828004E093
:102E900082884FF67F731A408280704702884FF60F
:102EA000F7731A40028002880A43028070478288C2
:102EB0004FF68F731A40828082880A43828070475F
:102EC00002894FF6F8731A40028102890A4302818F
:102ED000704702894FF67F731A40028102890A43C4
:102EE0000281704781847047818570478186704771
:102EF0000187704781877047A0F8401070470288AB
:102F00004FF6FF431A40028002880A43028070474E
:102F10000146888E70470146088F70470146888FAA
:102F200070470146B1F8400070470146888C7047F1
:102F30000146088D704702460020138A0B400BB1F2
:102F4000012000E000207047CA430282704730B57C
:102F50000246002000230024158A05EA0103958912
:102F600005EA010413B10CB1012000E0002030BDDE
:102F7000CA4302827047000010B50446FB488442F1
:102F800009D101218803FFF79FF800214FF4804009
:102F9000FFF79AF832E0F648844209D1012148044B
:102FA000FFF79FF800214FF40030FFF79AF825E073
:102FB000F048844209D101218804FFF792F80021EA
:102FC0004FF48020FFF78DF818E0EB48844209D1D8
:102FD0000121C804FFF785F800214FF40020FFF716
:102FE00080F80BE0E548844208D101210805FFF78D
:102FF00078F800214FF48010FFF773F810BD2DE929
:10300000F04786B005460E460024A24600BFA14602
:103010000027B08900B100BF2F462C8A4CF6FF7004
:103020000440F08804432C82AC894EF6F31004402F
:10303000B08831890843718908430443AC81AC8A64
:103040004FF6FF400440B0890443AC8201A8FEF76C
:10305000B4FFC648874202D1DDF810A001E0DDF8D8
:103060000CA0A88900F4004040B10AEBCA0000EBB4
:103070000A1031684900B0FBF1F807E00AEBCA001A
:1030800000EB0A1031688900B0FBF1F86420B8FB4E
:10309000F0F004012009642101FB1089A88900F4E3
:1030A000004040B1322000EBC900B0FBF1F000F06D
:1030B0000700044308E0322000EB09106421B0FB54
:1030C000F1F000F00F0004432C8106B0BDE8F0875A
:1030D0004FF41651016000218180C18001810C21D3
:1030E000418100218181704710B502460020108A7D
:1030F0004FF2FF0318400B884C8823438C882343EE
:10310000CC8823431843108210BD002101804180E8
:103110008180C180704721B1828942F4005282814E
:1031200004E082894DF6FF731A4082817047F0B542
:103130000346002400260025002040F66A17B94205
:1031400000D100BF1846C1F3421401F01F06012749
:1031500007FA06F5012C01D10C3004E0022C01D154
:10316000103000E014301AB107682F43076002E006
:103170000768AF430760F0BD1AB1838A0B438382AF
:1031800002E0838A8B4383827047028A4FF6F07392
:103190001A400282028A0A430282704782894FF2F1
:1031A000FF731A40828182890A438281704721B16C
:1031B000828942F00202828104E082894FF6FD7327
:1031C0001A4082817047028A4FF6DF731A400282EA
:1031D000028A0A430282704721B1028A42F4804285
:1031E000028204E0028A4BF6FF731A4002827047A3
:1031F000C1F308028280704701468888C0F3080046
:103200007047818941F0010181817047028BD2B200
:103210000283028B42EA012202837047028B02F48E
:103220007F420283028B0A430283704721B1828A64
:1032300042F02002828204E0828A4FF6DF731A4055
:103240008282704721B1828A42F01002828204E0B9
:10325000828A4FF6EF731A408282704721B1828AC8
:1032600042F00802828204E0828A4FF6F7731A4025
:103270008282704721B1828942F40042828103E058
:103280008289C2F30E028281704721B1828A42F4A0
:103290000062828204E0828A4FF2FF731A408282C7
:1032A0007047828A4FF6FB731A408282828A0A43F1
:1032B0008282704721B1828A42F00202828204E057
:1032C000828A4FF6FD731A408282704702460020C0
:1032D000B1F5007F00D100BF13880B400BB1012076
:1032E00000E00020704701F40072B2F5007F00D1C9
:1032F00000BFCA430280704770B502460024002315
:103300000025002040F66A16B14200D100BFC1F38B
:10331000421501F01F03012606FA03F3012D02D125
:103320009689334006E0022D02D1168A334001E02F
:10333000968A33400C12012606FA04F416883440AB
:1033400013B10CB1012000E0002070BD10B50022C7
:10335000002340F66A14A14200D100BF0A120124E2
:103360009440A3B2DC43048010BD0000003801404B
:103370000044004000480040004C00400050004025
:1033800010B50446FA48844208D101214015FEF7E1
:103390009BFE00216015FEF797FE17E0F54884427A
:1033A00008D101210015FEF78FFE00212015FEF740
:1033B0008BFE0BE0F048844208D10121C803FEF7E0
:1033C00083FE00214FF40040FEF77EFE10BD30B5B5
:1033D0000246002000235068E84C20400D790C681C
:1033E00044EA0524204350609068E54C2040D1E930
:1033F00002542C434D7944EA450420439060D06A3E
:1034000020F470000C7C641EE4B2234340EA0350B5
:10341000D06230BD00210160017141718160C160E5
:1034200001210174704721B1826842F0010282607B
:1034300003E0826822F001028260704721B1826855
:1034400042F48072826003E0826822F480728260BB
:10345000704710B50023CBB21AB144681C434460D6
:1034600002E044689C43446010BD816841F008015B
:1034700081607047014600208A6802F008020AB1A4
:10348000012000E000207047816841F00401816064
:103490007047014600208A6802F004020AB1012048
:1034A00000E00020704721B1826842F4A0028260EF
:1034B00003E0826822F4A002826070470146002087
:1034C0008A6802F480020AB1012000E000207047FF
:1034D00010B50A4600210023416821F46041531EC3
:1034E00041EA4331416010BD21B1426842F40062BB
:1034F000426003E0426822F4006242607047F0B527
:1035000004460D4600200021092D11DDE068A5F1DB
:103510000A0606EB4607072606FA07F18843A5F1D7
:103520000A0606EB460603FA06F10843E0600CE0E3
:10353000206905EB4507072606FA07F1884305EBE6
:10354000450603FA06F108432061072A0FDA606B8B
:10355000561E06EB86071F2606FA07F18843561EFD
:1035600006EB860605FA06F10843606322E00D2AA1
:103570000FDA206BD61F06EB86071F2606FA07F127
:103580008843D61F06EB860605FA06F1084320633A
:1035900010E0E06AA2F10D0606EB86071F2606FA88
:1035A00007F18843A2F10D0606EB860605FA06F13F
:1035B0000843E062F0BD21B1826842F4801282606B
:1035C00003E0826822F48012826070470146C86C72
:1035D00080B2704766484C300068704721B142683D
:1035E00042F48062426003E0426822F480624260FA
:1035F000704721B1426842F48052426003E0426861
:1036000022F48052426070470A460021816821F40A
:10361000E04111438160704721B1826842F4004269
:10362000826003E0826822F400428260704721B128
:10363000826842F40212826003E0826822F402127D
:1036400082607047014600208A6802F400120AB1C5
:10365000012000E000207047F0B504461546002028
:1036600000220026092911DDE068A1F10A0707EB15
:10367000470C072707FA0CF29043A1F10A0707EB62
:10368000470703FA07F21043E0600CE0206901EB02
:10369000410C072707FA0CF2904301EB410703FAAC
:1036A00007F210432061A06BC0F30156EF1C06F136
:1036B000010CA7EB0C0707EB870C1F2707FA0CF28E
:1036C0009043EF1C06F1010CA7EB0C0707EB8707F3
:1036D00001FA07F21043A063F0BD10B50A460021BD
:1036E0000023816B21F44011531E41EA0351816391
:1036F00010BD08B5002300930090009B0B4400937D
:10370000009B1A6008BD08B5024600200090009298
:1037100001F12800009B184400900098006880B2D6
:1037200008BD0A4600214168164B1940114341600B
:1037300070474162826270470A460021416821F069
:103740001F0111434160704740B1094908310968C0
:1037500041F40001064A0832116007E004490831CB
:10376000096821F40001024A083211607047000024
:103770000024014000280140003C0140FFFEF0FF12
:10378000FDF7F1FFFFFD3FFF0246002013680B40ED
:103790000BB1012000E000207047CA43026070476F
:1037A00070B502460020002300240B125568CEB2EB
:1037B00005EA060415681D4015B10CB1012000E0B2
:1037C000002070BD00220A12D3430360704700003E
:1037D00001684FF6FE7211400160002101604160F6
:1037E0008160C1608D49884208D18C490839496897
:1037F00041F00F01894A083A51608AE08749143143
:10380000884208D185490839496841F0F001834A66
:10381000083A51607DE081492831884208D17F49CA
:103820000839496841F470617C4A083A516070E097
:103830007A493C31884208D178490839496841F4CD
:103840007041764A083A516063E0744950318842C9
:1038500008D172490839496841F470216F4A083A21
:10386000516056E06D496431884208D16B4908398E
:10387000496841F47001694A083A516049E0674972
:103880007831884208D165490839496841F070614A
:10389000624A083A51603CE06149884206D1011F02
:1038A000096841F00F01021F116032E05C491431D8
:1038B000884208D15A49091F096841F0F001584A65
:1038C000121F116025E056492831884208D1544919
:1038D000091F096841F47061514A121F116018E014
:1038E0004F493C31884208D14D49091F096841F4CC
:1038F00070414B4A121F11600BE049495031884218
:1039000007D14749091F096841F47021444A121F31
:103910001160704710B50022026847F6F0739A43B1
:103920000C6A8B6823430C6923434C6923438C69DD
:103930002343CC6923434C6A23438C6A23431A43B1
:103940000260CB6843600B6883604B68C36010BD46
:103950000021016041608160C1600161416181615C
:10396000C161016241628162704721B1026842F027
:103970000102026004E002684FF6FE731A40026022
:1039800070471AB103680B43036002E003688B437E
:1039900003607047416070470146486880B27047D5
:1039A00001460020002201F080531BB11C4B083B54
:1039B0001A6802E0194B083B1A6802EA01030BB1CE
:1039C000012000E00020704700F0805119B1144937
:1039D000091F086002E01149083948607047014634
:1039E0000020002201F080531BB10D4B083B1A68E8
:1039F00002E00A4B083B1A6802EA01030BB10120FE
:103A000000E00020704700F0805119B10449091FFF
:103A1000086002E001490839486070470800024028
:103A2000080402400E49086070470D49486070471D
:103A30000B49886070474AF6AA2009490860704718
:103A40004CF6CC4006490860704701460020044A05
:103A5000D2680A400AB1012000E00020704700004F
:103A600000300040704770477047754600F028F8F6
:103A7000AE4605006946534620F00700854618B05B
:103A800020B5FDF76BFFBDE820404FF000064FF07A
:103A900000074FF000084FF0000B21F00701AC4683
:103AA000ACE8C009ACE8C009ACE8C009ACE8C009A2
:103AB0008D4670470446AFF300802046FCF77FFB3D
:103AC000004870479800002001491820ABBEFEE76F
:103AD0002600020070470148454801040402020123
:103AE00002024500043B00080000002060000000C6
:103AF0006C010008643B000860000020980600008C
:103B00008801000800A24A04000000000000000034
:103B1000010203040607080900000000000000007D
:103B20000000000000000000000000000000000095
:103B30000000010030000000000000000000000054
:103B4000000000003C000020000000000100000018
:103B50000000000102030401020304060708090231
:043B6000040608004F
:0400000508000131BD
:00000001FF
